{
  "address": "0x6bB02b3CEDd294876b13ca4390636231B62aC33d",
  "abi": [
    {
      "inputs": [
        {
          "internalType": "address",
          "name": "vrfCoordinatorV2",
          "type": "address"
        },
        {
          "internalType": "uint256",
          "name": "entranceFee",
          "type": "uint256"
        },
        {
          "internalType": "bytes32",
          "name": "gasLane",
          "type": "bytes32"
        },
        {
          "internalType": "uint64",
          "name": "subscriptionId",
          "type": "uint64"
        },
        {
          "internalType": "uint32",
          "name": "callbackGasLimit",
          "type": "uint32"
        },
        {
          "internalType": "uint256",
          "name": "interval",
          "type": "uint256"
        }
      ],
      "stateMutability": "nonpayable",
      "type": "constructor"
    },
    {
      "inputs": [],
      "name": "Lottery__NotEnoughETH",
      "type": "error"
    },
    {
      "inputs": [],
      "name": "Lottery__NotOpen",
      "type": "error"
    },
    {
      "inputs": [],
      "name": "Lottery__TransferFailed",
      "type": "error"
    },
    {
      "inputs": [
        {
          "internalType": "uint256",
          "name": "currBalance",
          "type": "uint256"
        },
        {
          "internalType": "uint256",
          "name": "numPlayers",
          "type": "uint256"
        },
        {
          "internalType": "uint256",
          "name": "lotteryState",
          "type": "uint256"
        },
        {
          "internalType": "uint256",
          "name": "interval",
          "type": "uint256"
        }
      ],
      "name": "Lottery__UpKeepNotNeeded",
      "type": "error"
    },
    {
      "inputs": [
        {
          "internalType": "address",
          "name": "have",
          "type": "address"
        },
        {
          "internalType": "address",
          "name": "want",
          "type": "address"
        }
      ],
      "name": "OnlyCoordinatorCanFulfill",
      "type": "error"
    },
    {
      "anonymous": false,
      "inputs": [
        {
          "indexed": true,
          "internalType": "address",
          "name": "player",
          "type": "address"
        }
      ],
      "name": "LotteryEnter",
      "type": "event"
    },
    {
      "anonymous": false,
      "inputs": [
        {
          "indexed": true,
          "internalType": "uint256",
          "name": "requestId",
          "type": "uint256"
        }
      ],
      "name": "RequestedLotteryWinner",
      "type": "event"
    },
    {
      "anonymous": false,
      "inputs": [
        {
          "indexed": true,
          "internalType": "address",
          "name": "winnerAddress",
          "type": "address"
        }
      ],
      "name": "WinnerPicked",
      "type": "event"
    },
    {
      "inputs": [
        {
          "internalType": "bytes",
          "name": "",
          "type": "bytes"
        }
      ],
      "name": "checkUpkeep",
      "outputs": [
        {
          "internalType": "bool",
          "name": "upkeepNeeded",
          "type": "bool"
        },
        {
          "internalType": "bytes",
          "name": "",
          "type": "bytes"
        }
      ],
      "stateMutability": "view",
      "type": "function"
    },
    {
      "inputs": [],
      "name": "enterLottery",
      "outputs": [],
      "stateMutability": "payable",
      "type": "function"
    },
    {
      "inputs": [],
      "name": "getEntranceFee",
      "outputs": [
        {
          "internalType": "uint256",
          "name": "",
          "type": "uint256"
        }
      ],
      "stateMutability": "view",
      "type": "function"
    },
    {
      "inputs": [],
      "name": "getInterval",
      "outputs": [
        {
          "internalType": "uint256",
          "name": "",
          "type": "uint256"
        }
      ],
      "stateMutability": "view",
      "type": "function"
    },
    {
      "inputs": [],
      "name": "getLotteryState",
      "outputs": [
        {
          "internalType": "enum lottery.LotteryState",
          "name": "",
          "type": "uint8"
        }
      ],
      "stateMutability": "view",
      "type": "function"
    },
    {
      "inputs": [],
      "name": "getNumberofPlayers",
      "outputs": [
        {
          "internalType": "uint256",
          "name": "",
          "type": "uint256"
        }
      ],
      "stateMutability": "view",
      "type": "function"
    },
    {
      "inputs": [
        {
          "internalType": "uint256",
          "name": "index",
          "type": "uint256"
        }
      ],
      "name": "getPlayer",
      "outputs": [
        {
          "internalType": "address",
          "name": "",
          "type": "address"
        }
      ],
      "stateMutability": "view",
      "type": "function"
    },
    {
      "inputs": [],
      "name": "getRecentWinner",
      "outputs": [
        {
          "internalType": "address",
          "name": "",
          "type": "address"
        }
      ],
      "stateMutability": "view",
      "type": "function"
    },
    {
      "inputs": [],
      "name": "getSubscriptionId",
      "outputs": [
        {
          "internalType": "uint256",
          "name": "",
          "type": "uint256"
        }
      ],
      "stateMutability": "view",
      "type": "function"
    },
    {
      "inputs": [],
      "name": "getTimeStamp",
      "outputs": [
        {
          "internalType": "uint256",
          "name": "",
          "type": "uint256"
        }
      ],
      "stateMutability": "view",
      "type": "function"
    },
    {
      "inputs": [
        {
          "internalType": "bytes",
          "name": "",
          "type": "bytes"
        }
      ],
      "name": "performUpkeep",
      "outputs": [],
      "stateMutability": "nonpayable",
      "type": "function"
    },
    {
      "inputs": [
        {
          "internalType": "uint256",
          "name": "requestId",
          "type": "uint256"
        },
        {
          "internalType": "uint256[]",
          "name": "randomWords",
          "type": "uint256[]"
        }
      ],
      "name": "rawFulfillRandomWords",
      "outputs": [],
      "stateMutability": "nonpayable",
      "type": "function"
    }
  ],
  "transactionHash": "0x5c3a11833e50167a7a5613fe3d0ed2b54a1493b2b0f3553c09641c94e31456d8",
  "args": [
    "0x2ca8e0c643bde4c2e08ab1fa0da3401adad7734d",
    "10000000000000000",
    "0x79d3d8832d904592c0bf9818b621522c988bb8b0c05cdc3b15aea1b6e8db0c15",
    "3471",
    "500000",
    "30"
  ],
  "numDeployments": 1,
  "solcInputHash": "9cbe3e7dde9838212f7ac26c52756f10",
  "bytecode": "0x6101606040523480156200001257600080fd5b506040516200187b3803806200187b8339818101604052810190620000389190620002a0565b858073ffffffffffffffffffffffffffffffffffffffff1660808173ffffffffffffffffffffffffffffffffffffffff1660601b81525050508573ffffffffffffffffffffffffffffffffffffffff1660c08173ffffffffffffffffffffffffffffffffffffffff1660601b815250508460a081815250508360e081815250508267ffffffffffffffff166101008167ffffffffffffffff1660c01b815250508163ffffffff166101208163ffffffff1660e01b815250506000600160146101000a81548160ff021916908360018111156200011957620001186200033c565b5b0217905550426002819055508061014081815250505050505050506200036b565b600080fd5b600073ffffffffffffffffffffffffffffffffffffffff82169050919050565b60006200016c826200013f565b9050919050565b6200017e816200015f565b81146200018a57600080fd5b50565b6000815190506200019e8162000173565b92915050565b6000819050919050565b620001b981620001a4565b8114620001c557600080fd5b50565b600081519050620001d981620001ae565b92915050565b6000819050919050565b620001f481620001df565b81146200020057600080fd5b50565b6000815190506200021481620001e9565b92915050565b600067ffffffffffffffff82169050919050565b62000239816200021a565b81146200024557600080fd5b50565b60008151905062000259816200022e565b92915050565b600063ffffffff82169050919050565b6200027a816200025f565b81146200028657600080fd5b50565b6000815190506200029a816200026f565b92915050565b60008060008060008060c08789031215620002c057620002bf6200013a565b5b6000620002d089828a016200018d565b9650506020620002e389828a01620001c8565b9550506040620002f689828a0162000203565b94505060606200030989828a0162000248565b93505060806200031c89828a0162000289565b92505060a06200032f89828a01620001c8565b9150509295509295509295565b7f4e487b7100000000000000000000000000000000000000000000000000000000600052602160045260246000fd5b60805160601c60a05160c05160601c60e0516101005160c01c6101205160e01c61014051611486620003f5600039600081816103e50152818161064901526106f2015260006104f10152600081816104ce0152610893015260006104ad015260006104710152600081816102b401526107180152600081816102da015261032e01526114866000f3fe6080604052600436106100a75760003560e01c80636e04ff0d116100645780636e04ff0d146101aa57806391ad27b4146101e8578063c1af578514610213578063da235b221461021d578063de3d9fb714610248578063e55ae4e814610273576100a7565b806309bc33a7146100ac5780631fe543e3146100d75780634585e33b14610100578063473f1ddc1461012957806349a706ce146101545780636b68c03c1461017f575b600080fd5b3480156100b857600080fd5b506100c16102b0565b6040516100ce9190610bf9565b60405180910390f35b3480156100e357600080fd5b506100fe60048036038101906100f99190610dad565b6102d8565b005b34801561010c57600080fd5b5061012760048036038101906101229190610e64565b610398565b005b34801561013557600080fd5b5061013e6105b9565b60405161014b9190610ef2565b60405180910390f35b34801561016057600080fd5b506101696105e3565b6040516101769190610bf9565b60405180910390f35b34801561018b57600080fd5b506101946105ef565b6040516101a19190610f84565b60405180910390f35b3480156101b657600080fd5b506101d160048036038101906101cc9190611054565b610606565b6040516101df929190611140565b60405180910390f35b3480156101f457600080fd5b506101fd6106ee565b60405161020a9190610bf9565b60405180910390f35b61021b610716565b005b34801561022957600080fd5b50610232610885565b60405161023f9190610bf9565b60405180910390f35b34801561025457600080fd5b5061025d61088f565b60405161026a9190610bf9565b60405180910390f35b34801561027f57600080fd5b5061029a60048036038101906102959190611170565b6108c1565b6040516102a79190610ef2565b60405180910390f35b60007f0000000000000000000000000000000000000000000000000000000000000000905090565b7f000000000000000000000000000000000000000000000000000000000000000073ffffffffffffffffffffffffffffffffffffffff163373ffffffffffffffffffffffffffffffffffffffff161461038a57337f00000000000000000000000000000000000000000000000000000000000000006040517f1cf993f400000000000000000000000000000000000000000000000000000000815260040161038192919061119d565b60405180910390fd5b6103948282610908565b5050565b60006103b260405180602001604052806000815250610606565b509050806104435747600080549050600160149054906101000a900460ff1660018111156103e3576103e2610f0d565b5b7f00000000000000000000000000000000000000000000000000000000000000006040517ff56b55a300000000000000000000000000000000000000000000000000000000815260040161043a94939291906111c6565b60405180910390fd5b60018060146101000a81548160ff0219169083600181111561046857610467610f0d565b5b021790555060007f000000000000000000000000000000000000000000000000000000000000000073ffffffffffffffffffffffffffffffffffffffff16635d3b1d307f00000000000000000000000000000000000000000000000000000000000000007f000000000000000000000000000000000000000000000000000000000000000060037f000000000000000000000000000000000000000000000000000000000000000060016040518663ffffffff1660e01b8152600401610532959493929190611283565b602060405180830381600087803b15801561054c57600080fd5b505af1158015610560573d6000803e3d6000fd5b505050506040513d601f19601f8201168201806040525081019061058491906112eb565b9050807febf56642252004c18a776f30d528e7a0ce8c5db14b6596fb6550f630c8a24c6c60405160405180910390a250505050565b6000600160009054906101000a900473ffffffffffffffffffffffffffffffffffffffff16905090565b60008080549050905090565b6000600160149054906101000a900460ff16905090565b600060606000600160149054906101000a900460ff16600181111561062e5761062d610f0d565b5b6000600181111561064257610641610f0d565b5b14905060007f0000000000000000000000000000000000000000000000000000000000000000600254426106769190611347565b119050600080600080549050119050600080471190508380156106965750825b801561069f5750805b80156106a85750815b9550856040518060400160405280600381526020017f30783000000000000000000000000000000000000000000000000000000000008152509550955050505050915091565b60007f0000000000000000000000000000000000000000000000000000000000000000905090565b7f0000000000000000000000000000000000000000000000000000000000000000341015610770576040517f6844f56200000000000000000000000000000000000000000000000000000000815260040160405180910390fd5b6000600181111561078457610783610f0d565b5b600160149054906101000a900460ff1660018111156107a6576107a5610f0d565b5b146107dd576040517fe76be6fc00000000000000000000000000000000000000000000000000000000815260040160405180910390fd5b6000339080600181540180825580915050600190039060005260206000200160009091909190916101000a81548173ffffffffffffffffffffffffffffffffffffffff021916908373ffffffffffffffffffffffffffffffffffffffff1602179055503373ffffffffffffffffffffffffffffffffffffffff167f1d64fb5ba9f2548c5b98468d58f25b87b9e866afee0122e92d9fe722bf85076c60405160405180910390a2565b6000600254905090565b60007f000000000000000000000000000000000000000000000000000000000000000067ffffffffffffffff16905090565b60008082815481106108d6576108d561137b565b5b9060005260206000200160009054906101000a900473ffffffffffffffffffffffffffffffffffffffff169050919050565b60008080549050826000815181106109235761092261137b565b5b602002602001015161093591906113d9565b9050600080828154811061094c5761094b61137b565b5b9060005260206000200160009054906101000a900473ffffffffffffffffffffffffffffffffffffffff16905080600160006101000a81548173ffffffffffffffffffffffffffffffffffffffff021916908373ffffffffffffffffffffffffffffffffffffffff1602179055506000600160146101000a81548160ff021916908360018111156109e0576109df610f0d565b5b0217905550600067ffffffffffffffff811115610a00576109ff610c6a565b5b604051908082528060200260200182016040528015610a2e5781602001602082028036833780820191505090505b5060009080519060200190610a44929190610b39565b504260028190555060008173ffffffffffffffffffffffffffffffffffffffff1647604051610a729061143b565b60006040518083038185875af1925050503d8060008114610aaf576040519150601f19603f3d011682016040523d82523d6000602084013e610ab4565b606091505b5050905080610aef576040517f1c94012000000000000000000000000000000000000000000000000000000000815260040160405180910390fd5b8173ffffffffffffffffffffffffffffffffffffffff167f5b690ec4a06fe979403046eaeea5b3ce38524683c3001f662c8b5a829632f7df60405160405180910390a25050505050565b828054828255906000526020600020908101928215610bb2579160200282015b82811115610bb15782518260006101000a81548173ffffffffffffffffffffffffffffffffffffffff021916908373ffffffffffffffffffffffffffffffffffffffff16021790555091602001919060010190610b59565b5b509050610bbf9190610bc3565b5090565b5b80821115610bdc576000816000905550600101610bc4565b5090565b6000819050919050565b610bf381610be0565b82525050565b6000602082019050610c0e6000830184610bea565b92915050565b6000604051905090565b600080fd5b600080fd5b610c3181610be0565b8114610c3c57600080fd5b50565b600081359050610c4e81610c28565b92915050565b600080fd5b6000601f19601f8301169050919050565b7f4e487b7100000000000000000000000000000000000000000000000000000000600052604160045260246000fd5b610ca282610c59565b810181811067ffffffffffffffff82111715610cc157610cc0610c6a565b5b80604052505050565b6000610cd4610c14565b9050610ce08282610c99565b919050565b600067ffffffffffffffff821115610d0057610cff610c6a565b5b602082029050602081019050919050565b600080fd5b6000610d29610d2484610ce5565b610cca565b90508083825260208201905060208402830185811115610d4c57610d4b610d11565b5b835b81811015610d755780610d618882610c3f565b845260208401935050602081019050610d4e565b5050509392505050565b600082601f830112610d9457610d93610c54565b5b8135610da4848260208601610d16565b91505092915050565b60008060408385031215610dc457610dc3610c1e565b5b6000610dd285828601610c3f565b925050602083013567ffffffffffffffff811115610df357610df2610c23565b5b610dff85828601610d7f565b9150509250929050565b600080fd5b60008083601f840112610e2457610e23610c54565b5b8235905067ffffffffffffffff811115610e4157610e40610e09565b5b602083019150836001820283011115610e5d57610e5c610d11565b5b9250929050565b60008060208385031215610e7b57610e7a610c1e565b5b600083013567ffffffffffffffff811115610e9957610e98610c23565b5b610ea585828601610e0e565b92509250509250929050565b600073ffffffffffffffffffffffffffffffffffffffff82169050919050565b6000610edc82610eb1565b9050919050565b610eec81610ed1565b82525050565b6000602082019050610f076000830184610ee3565b92915050565b7f4e487b7100000000000000000000000000000000000000000000000000000000600052602160045260246000fd5b60028110610f4d57610f4c610f0d565b5b50565b6000819050610f5e82610f3c565b919050565b6000610f6e82610f50565b9050919050565b610f7e81610f63565b82525050565b6000602082019050610f996000830184610f75565b92915050565b600080fd5b600067ffffffffffffffff821115610fbf57610fbe610c6a565b5b610fc882610c59565b9050602081019050919050565b82818337600083830152505050565b6000610ff7610ff284610fa4565b610cca565b90508281526020810184848401111561101357611012610f9f565b5b61101e848285610fd5565b509392505050565b600082601f83011261103b5761103a610c54565b5b813561104b848260208601610fe4565b91505092915050565b60006020828403121561106a57611069610c1e565b5b600082013567ffffffffffffffff81111561108857611087610c23565b5b61109484828501611026565b91505092915050565b60008115159050919050565b6110b28161109d565b82525050565b600081519050919050565b600082825260208201905092915050565b60005b838110156110f25780820151818401526020810190506110d7565b83811115611101576000848401525b50505050565b6000611112826110b8565b61111c81856110c3565b935061112c8185602086016110d4565b61113581610c59565b840191505092915050565b600060408201905061115560008301856110a9565b81810360208301526111678184611107565b90509392505050565b60006020828403121561118657611185610c1e565b5b600061119484828501610c3f565b91505092915050565b60006040820190506111b26000830185610ee3565b6111bf6020830184610ee3565b9392505050565b60006080820190506111db6000830187610bea565b6111e86020830186610bea565b6111f56040830185610bea565b6112026060830184610bea565b95945050505050565b6000819050919050565b61121e8161120b565b82525050565b600067ffffffffffffffff82169050919050565b61124181611224565b82525050565b600061ffff82169050919050565b61125e81611247565b82525050565b600063ffffffff82169050919050565b61127d81611264565b82525050565b600060a0820190506112986000830188611215565b6112a56020830187611238565b6112b26040830186611255565b6112bf6060830185611274565b6112cc6080830184611274565b9695505050505050565b6000815190506112e581610c28565b92915050565b60006020828403121561130157611300610c1e565b5b600061130f848285016112d6565b91505092915050565b7f4e487b7100000000000000000000000000000000000000000000000000000000600052601160045260246000fd5b600061135282610be0565b915061135d83610be0565b9250828210156113705761136f611318565b5b828203905092915050565b7f4e487b7100000000000000000000000000000000000000000000000000000000600052603260045260246000fd5b7f4e487b7100000000000000000000000000000000000000000000000000000000600052601260045260246000fd5b60006113e482610be0565b91506113ef83610be0565b9250826113ff576113fe6113aa565b5b828206905092915050565b600081905092915050565b50565b600061142560008361140a565b915061143082611415565b600082019050919050565b600061144682611418565b915081905091905056fea2646970667358221220931118de343423f4b0c6b0c44c7f8714e9540493b213b620c6e2a0621b690fe564736f6c63430008080033",
  "devdoc": {
    "kind": "dev",
    "methods": {
      "checkUpkeep(bytes)": {
        "details": "the checkupkeep function tell the keeper when to execute out contract in our contract the follwing conditions must be met 1.minimum time interval is passed 2.minimum of 1 player and some eth 3.our contract is in \"open\" state"
      }
    },
    "version": 1
  },
  "userdoc": {
    "kind": "user",
    "methods": {},
    "version": 1
  },
  "storageLayout": {
    "storage": [
      {
        "astId": 1163,
        "contract": "contracts/lottery.sol:lottery",
        "label": "s_players",
        "offset": 0,
        "slot": "0",
        "type": "t_array(t_address_payable)dyn_storage"
      },
      {
        "astId": 1180,
        "contract": "contracts/lottery.sol:lottery",
        "label": "s_recentWinner",
        "offset": 0,
        "slot": "1",
        "type": "t_address"
      },
      {
        "astId": 1183,
        "contract": "contracts/lottery.sol:lottery",
        "label": "s_lotteryState",
        "offset": 20,
        "slot": "1",
        "type": "t_enum(LotteryState)1158"
      },
      {
        "astId": 1185,
        "contract": "contracts/lottery.sol:lottery",
        "label": "s_lastTimeStamp",
        "offset": 0,
        "slot": "2",
        "type": "t_uint256"
      }
    ],
    "types": {
      "t_address": {
        "encoding": "inplace",
        "label": "address",
        "numberOfBytes": "20"
      },
      "t_address_payable": {
        "encoding": "inplace",
        "label": "address payable",
        "numberOfBytes": "20"
      },
      "t_array(t_address_payable)dyn_storage": {
        "base": "t_address_payable",
        "encoding": "dynamic_array",
        "label": "address payable[]",
        "numberOfBytes": "32"
      },
      "t_enum(LotteryState)1158": {
        "encoding": "inplace",
        "label": "enum lottery.LotteryState",
        "numberOfBytes": "1"
      },
      "t_uint256": {
        "encoding": "inplace",
        "label": "uint256",
        "numberOfBytes": "32"
      }
    }
  }
}